:020000040000FA
:10000000010800F000006208C05D89FD0400FFFFE8
:10001000FFFF400600042511262CDC020A00C00266
:080020000000C0000000000216
:1002C000690200000018010000800200D007C4206D
:1002D000001C026000D806000020026000D8060062
:1002E0000024026000D806000044036000200000E3
:1002F0000003010001823D00FF0428325A7D000105
:10030000000031000358FF7F00D8FCFF00F8FFFF1A
:1003100000C701003A00003A0000C901003900009E
:10032000390000CA0100390000390000CA01003953
:100330000000390000D83200FF0C460000003000F9
:1003400000001D000000130000000C000000080069
:100350000000050000000300000002000000010092
:10036000000000000000000000000A8800A05E20DD
:10037000007047000010B5134C42F2043020820098
:10038000F054F96068104920F40010606001200802
:10039000700E4908600F490E48086010490E484821
:1003A00067BDE81040012011F664BD10B50C480D82
:1003B0004942F646FAAFF243000B4908600C490B7C
:1003C00048086010BD983020001812200028122024
:1003D000005D642000381320005960200074542010
:1003E00000C06720002C000000745E2000EC672035
:1003F00000501320000A9008245F20000649097865
:10040000002907D105490978002903D000F00F0021
:1004100025F684FE25F694FEB8672000B967200013
:100420001DD0114D002618B1AE6610490E7019E0AE
:100430002821A86E0E4F40183968884212D2FAF56A
:100440003DFC8046FAF53DFC0A480078C00704D11F
:10045000064901230B7025F6EAF925F6F6F9064957
:1004600001230B70BDE8F081200F2000B867200049
:10047000FC0E200043152000B967200000F026F88C
:1004800025F60EFA04464FF0000184F87E108069CC
:100490000FF6DEB940F2311068802EF6BBBD40F297
:1004A000311060802EF646BF00F021B9062900D237
:1004B00006213FF687BC0000BDE8304000F080B95F
:1004C000162130F66CF930F6B0B90000F0B54FF4F3
:1004D0004815A869012822D9286900F00F000228D0
:1004E0001DD00F4A1078012819D10F490D4809680D
:1004F00001270023814211D050780C4E08B9A86919
:1005000009E0A9693068401A00EB4000C41700EB0D
:10051000947001EBA0003060EB6157701370F0BD78
:10052000B86720007C5B2000782F2000A00F2000FF
:10053000017C0A2904D1C17C022901D10321C174A3
:10054000002070472DE9F041404F0446866A97F835
:10055000400000286BD1012120461CF68DFD051EB0
:100560004FF0010848DD022D04DB20461EF6C8FCD2
:1005700000285CD1A38C981FA8421EDD3868A042D9
:100580000BD096F8A20010B1401E86F8A200681C9D
:10059000411020461EF62FFC2EE0681CE17B401027
:1005A00021B1716C11B194F8481029B3218E8142A8
:1005B00022D8628E2AB9A6891EB920461CF644FAB2
:1005C0001AE0914200D81146814201D20C2012E07B
:1005D000A17C94F84E2091420ED11D4909788842A1
:1005E0000AD394F8480028B11A480078834201D908
:1005F000242000E03720A07494F85000002816D082
:10060000801E10F0FF0084F8500010D1E07B01281C
:1006100005D0217D4046092901D1002807D12A466D
:100620002046BDE8F041052302211EF695BBBDE83A
:10063000F08110B50948084C04602C220849204676
:1006400042F624F9AFF20310606210BD782F20004B
:10065000AA0D2000A30D2000C0672000B40D2000CB
:10066000B0D4040038B5C16904461648C1F3C402C9
:100670004068082A10D3817B012903D1D0E90412F4
:10068000C4E90F1200F110030093C37B827B0021A9
:10069000204639F656F809E042690069C4E90F02BC
:1006A00041F08070E06120462EF601FBE069C00158
:1006B00006D504F13C012046BDE8384038F69CBD23
:1006C00038BD00003C0E200012490A2009780A06B5
:1006D0000CD40620CA0609D405208A0706D40420B3
:1006E0004A0703D40320C90700D1022070470949F3
:1006F0000A2009780A060CD40620CA0609D4052067
:100700008A0706D404204A0703D40320C90700D16E
:1007100002207047F10D2000F0B599B0054600F1B8
:1007200018060C4601A83FF6E3FE294601A83FF64D
:10073000F0FE401C3DD104F134010F4628463FF63F
:10074000E8FE401C35D1314601A83FF6E2FE401CD0
:100750002FD1394630463FF6DCFE401C29D13146C8
:1007600013A843F6A8FD29460DA843F6A4FD2A4682
:100770000DA90DA843F61EFC2A46294607A843F6F4
:10078000E6FB2A4607A907A843F6E1FB07AA04F1FE
:10079000180107A843F69EFB07AA0DA907A843F670
:1007A000D6FB07A913A83FF6B4FE10B9012019B073
:1007B000F0BD0020FBE70149AEE70000905C20009F
:1007C00010B5002190B00CA80A460B460C4680E8F4
:1007D0001E00554C94F89710C1F3810141B10129D5
:1007E0002AD0022904D1514991E80C5080E80C50DC
:1007F0004E4810304178C1F303028DF81420408830
:10080000C0F300008DF8150008098DF81600201DB2
:10081000FFF7D1FFA0B1226806AB2832444905A8F2
:100820008DE80F00404A0CAB5432A2F1100101F1E7
:10083000200032F61FFB07E0D4F88C000C90D7E7BD
:10084000062106A832F65BFB06A836F6D5FE0A207E
:1008500084F8900010B010BDF0B50020324E8DB07D
:1008600005AF014602460346346887E80F0096F854
:100870009750C5F3810048B101283ED0022805D128
:10088000E80703D0294810380FC80FC716F8950F8E
:100890008DF81000C5F300008DF8110070788DF808
:1008A000120009AB224A04F1280104A88DE80F00C8
:1008B0001D4A05AB443202F1100101F1100032F67D
:1008C000D9FAB078A6F1950680060AD4301DFFF754
:1008D00072FF30B115491022303909A841F6DFFE08
:1008E00078B1E08C0523C0F38002412120462DF62B
:1008F000A1FC36F665FD0DB0F0BDD6F88C00059074
:10090000C4E700230093E08C4121C0F3800220461D
:100910002DF64FFC96F89700800702D536F6C8FFF3
:10092000E9E7FFF74DFFE6E7C05220008C322000D8
:10093000545E200010B5B0F801300124C3F3090261
:1009400003F47C431B0A042B0AD0102B13D1012A79
:100950000BD0022A0CD00C2A0DD100F099F80BE034
:100960002A2A08D100F0A2F806E000F007F803E018
:1009700000F01AF800E00024204610BD70B50546CE
:1009800000F108041FF686FB454EA071708AA4F89A
:1009900007001FF690FB607240F231106081308AD0
:1009A000A0810820E87070BD10B5044690B000200A
:1009B00084F828004021684641F69AFFFF20BF21B5
:1009C0008DF80010CC228DF804208DF801008DF8F0
:1009D00002008DF80500EF228DF806208DF8070043
:1009E0008DF80800F3208DF80900E4208DF80A0046
:1009F0001F208DF80B00F2208DF80C000F208DF8D1
:100A00000D00E8208DF80E00032127208DF803103B
:100A10008DF81000FE2123488DF80F100078F72183
:100A20004207002A01DB4FF000018DF811104FF052
:100A3000830101DB4FF000018DF812104FEA407185
:100A40004FEA21214FEA11618DF813104FF00C018C
:100A500001DB4FF00001102202EAC00211438DF8C1
:100A600014106021C20600D40021C0F340000143ED
:100A700001F001008DF8180008208DF82900217878
:100A80006B46402241F2020038F69CFC10B010BDCB
:100A900001228273044A0221D27BC273C170704763
:100AA00098302000F10D2000A831200070B50546D7
:100AB0004E7A0846A6F10D01032901D3122005E064
:100AC000C01C1FF62DFB040002D10220287070BD4F
:100AD000052120682EF63FFEB5F80100002138F60A
:100AE0008FFC002085F82800324631462046BDE8BC
:100AF00070402FF6B7BE00007CB514461D46DDE9F8
:100B00000623CDE900232B4622460CF692FB0A4928
:100B100001607CBD10B50CF6A2FD084901200870EB
:100B200010BD10B50CF6CCFD012011F6ABF8034951
:100B30000020087010BD000000672000E0092000C0
:100B400010B50023FBF5C5FF1E49016010BD10B5AF
:100B50001D4C2068002807D1242010F674F80022CC
:100B60000A21FFF7EDFF206010BD10B5164C20687C
:100B7000002802D1FFF7EBFF206010BD7CB51546C1
:100B80001C46DDE90623032D0ED10679A6420DD0C1
:100B90004679A6420AD0C679A64207D0067AA6426E
:100BA00004D0467AA64201D002207CBDCDE90023C4
:100BB00023462A46FBF590FE7CBDAFF26D0003494B
:100BC0000860704794672000BC672000C4052000BF
:100BD0000000000000000000292C0100792C010019
:100BE0001D2D0100332D01005F2E01007F2E01001D
:100BF000D52E01006D2F01002D300100FB300100CA
:100C00001D2F0100253101003D6620004B662000AC
:100C1000273201007D320100A9320100C3330100F7
:100C2000DF330100EF3301001134010039340100DA
:100C30004934010081340100A5340100C1340100B0
:100C4000E134010001350100333501005D3501005B
:100C5000A5350100AB350100B7350100D9350100DC
:100C6000EF3501000000000000000000A566200034
:100C70004525000059260000A5260000C7260000D3
:100C80002B270000792700000A1400B0672000A07D
:100C90005E2000245F20000000000000000000082B
:100CA0000F000040BC0200DAF170B90000245F20A0
:100CB00000080F00012CB30200DAF10CBE0000485E
:100CC0005F2000080F0002A8B30200DAF1FCBD00AB
:100CD00000A45F2000080F000374530100F0F11A14
:100CE000BE0000AC5F2000080F0004384B0300D1A9
:100CF000F140BA0000BC5F2000080F0005584E0309
:100D000000D1F1B5B80000C65F2000080F0006381A
:100D10004D0300D1F128BA00008C612000080F00BB
:100D200007BC5B0200E0F118BB0000F06120000886
:100D30000F0008E05B0200E0F1F6B90000D05F2090
:100D400000080F0009E4580400C0F176BB0000D48D
:100D50005F2000080F000A74D40300C8F184BF00AC
:100D60000080632000080F000B58D10300C8F14237
:100D7000BF0000E05F2000080F000C4C630300CFB1
:100D8000F14CBE0000E85F20000A0500F10D2000D4
:100D9000870B0400DA5E200018010000DC0400006C
:100DA0001BB700B602000111410C004B6579636866
:100DB000726F6E204B3200A7140040007E0000FFCF
:100DC000010000B07F000000000000000000162EAF
:100DD000004954434644736326462E32303733303D
:100DE00041322E4344445A48443034322E4B325F11
:100DF000383838375F4F54415F5630312E3039A084
:100E0000550000254001FE010001010001FFFFFF28
:100E1000FFFF040000030004B40032001E003C0089
:100E20001E00010000201E000020010502010140FB
:100E300000000801800000081E3302000100401F6E
:100E400001F22B0000000301E20402000010270061
:100E50002001BCCC000000A91A006C3000001B333C
:100E6000000040000000141E0802B0040000000052
:100E700000000000B9180009B80B0000002A751521
:100E8000083D070F0600006403080101000000B3DD
:100E90000600E80318030122B486000100E80300FD
:100EA0000000001200120001000100010700000212
:100EB00000808D5B00012C12001200010001000176
:100EC000070000F10000000000000000000000002A
:100ED000000000010700000000000000000000000A
:100EE0000000000000000000000000000000000002
:100EF00000000000000000000000000000000000F2
:100F000000000000000000000000000000000000E1
:100F100000000000000000000000000000000000D1
:100F200000B537000000808D5B000000000000006D
:100F30000000000001070000F000000000000000B9
:100F40000000000000000000010700000000000099
:100F50000000000000000000000000A110000001DF
:100F600000010000000000030400020100017E04F3
:100F70000022000000A50C0000041000FF03000088
:100F8000C1660200A218000105021504FF010090CD
:100F900003030100030500060400013201082C725E
:100FA00006000B0000000001A3B600012901350175
:100FB0002B0139020202010149103A111E011401EC
:100FC00004111D12080000103B111F011A11161107
:100FD0001B1204014C103C112001081107010600EE
:100FE000000000103D012111150109011900000147
:100FF0004A103E01221117010A1305012C014B1062
:101000003F0123111C010B01110000134610400188
:10101000240118110D01100000014D10410125118E
:101020000C010E01360000014E1042012611121172
:101030000F01371240015010430127011301330102
:1010400038000001511044012D012F01340220020B
:101050001001521045012E01300128012A013101F1
:101060004FA41800063A073B083C093D0A3E0B3FD7
:101070000C400D410E420F4310441145B2070001D0
:10108000000419262400BC020002040A5000EC6788
:10109000200070B50C4B0C480D4E0D4D0E4C83428C
:1010A00004D0D3E900109A6841F626FD294630465F
:1010B00041F6B1FD3AF63AFB08B907480460BDE8CD
:1010C000704003F01EB810A3200010A32000C4A499
:1010D0002000BC03000080A82000501320000AE478
:1010E0003A386820002DE9F04F89B0FFF750FF1023
:1010F000F687FF0446602011F6AFF90CB1204600D8
:10110000E04E4809F60BFF94200FF687FF4C49008C
:101110002200914C4B114601F039FC044634200F5B
:10112000F67CFF03224849CDE900120823474A21F3
:1011300046FFF7CCFEDFF818B1464EDBF80050054D
:10114000F11001CBF80010F07DB17D484326F6BFC9
:10115000FC0146F37DB27D284610F683F805464F24
:10116000F4C8700FF65AFF824628200FF656FF4348
:10117000F2D402002102F0C8FE814604200FF64D91
:10118000FFF9F5FCFF804611F6A7FB009004200F45
:10119000F644FFFAF51BF8074611F6DEFD019074E0
:1011A000200FF63BFF029008200FF637FF002101C9
:1011B00060416014F631FD28490646016020460E64
:1011C000F6C5F90146334622460298FBF55FFF005B
:1011D000230593019A0297CDE9032000992346CD78
:1011E000E900814A462946504602F042FD1B490467
:1011F0004601601B4806AB07C883E80700002006CD
:10120000AA115C491E1154401CC0B20C28F8D3200E
:101210004601F066FB1349DBF800000968884200CC
:10122000D9FEE7206881682046884702212046FAD7
:10123000F58BFF09B02046BDE8F08F00006C9820C8
:101240000010B00400F0AF0400F808200058082097
:1012500000B0672000380420004C9C2000A4A1208E
:101260000000A32000B4672000F8B5FF4D012468FA
:101270006A009489B10D230522012111F697F90026
:101280009440F20D4306220121686A11F68FF9405D
:10129000F20D230722009409E04FF400763346054F
:1012A00022012111F683F9334606220094012168B8
:1012B0006A11F67CF9F8BDFAF527BB1CB5002000D1
:1012C000900190E94C20201346ADF802000A4669CF
:1012D00046606A11F655FA20220121606A11F6FC77
:1012E000F91CBD082180F85111002180F8521180AD
:1012F000F8531180F8541170470C2180F8551100F3
:10130000210A464318491CC9B283F856210F29F80F
:10131000D380F86521704710B504460020C4F84416
:1013200001092104F5A47041F6CDFCD04800788471
:10133000F8480110BD70B5CC4D04460023D5E91224
:10134000120FF62DFFC4F84001D5E9141200232036
:10135000460FF625FFC4F86801D5E91612002320D0
:10136000460FF61DFFC4F86C01D5E91812002320C2
:10137000460FF615FFC4F87001D5E91A12002320B4
:10138000460FF60DFFC4F87401D5E91C12002320A6
:10139000460FF605FFC4F8780105F1400000260667
:1013A000704670552068742046FFF7B5FF2046FF51
:1013B000F7A3FF2046FFF795FFA4F83E61112084B4
:1013C000F83E01AE74EE7070BDF0B587B0DDE90C8B
:1013D00045DDE90E67DDE910CE8DE8F050FAF5CC79
:1013E000FCA349016000F5867002F090F818300106
:1013F000F0FBFB083001F06CFC103002F0A7FD4060
:101400001C02F0F6FDA0F23D1411F643F99649488E
:1014100062606C886204F59270C8621838086320B4
:1014200030486310308863606FC86301F074FEC495
:10143000F828012046FFF77EFF2246AFF28511D43F
:10144000F8280101F071FE0121D4F8280101F0868D
:10145000FE2246AFF29D111046FFF72FFF0121201B
:1014600046FFF702FF0121D4F8280101F07CFF07B5
:10147000B02046F0BDFEB5022ADDE9084513D17B58
:101480004EB6799E4209D101686D1CAAB2D1F8C04E
:101490003003B0611EBDE8F0401847B52B03D17290
:1014A0004F012640377E7000268DE87000FAF5E483
:1014B000F8FEBD70B50446FAF5C0FC6B4D0021E89E
:1014C0006A01F09CFB0021D4F8280101F04CFF01D7
:1014D00022BF2105F1110010F643FC687C5528035A
:1014E000D0AA2801D0552068745F480122C221800B
:1014F0001C10F636FCA87818B1012801D00020A8ED
:10150000705C4902200870686B01F01DFC11F62424
:10151000FC11F661FC002810D000225749286B020C
:10152000F0A3F9686B017801F073FC002805D06026
:101530006C01684969BDE87040084770BD2DE9F04D
:1015400047DFF82481044608F1400890F8E310983A
:10155000F8000001260027444DD4F8742140F6B865
:101560003911290AD0422911D01E2918D025291F46
:10157000D02C2926D041292DD035E094F8E410490B
:101580000602D470B32E722EE02F722CE094F8E491
:1015900010490602D428B36E7225E06F7223E094DE
:1015A000F8E410490602D4E0B1AE721CE0AF721A42
:1015B000E094F8E410490602D498B1EE7213E0EF1B
:1015C0007211E094F8E410490602D450B12E730A67
:1015D000E02F7308E094F8E410490603D408B16ED4
:1015E0007301E008E06F73012805D1287A01280211
:1015F000D1687B01280CD010460FF6C0FD98F8008A
:101600000001280AD0D4F86C01BDE8F0470FF6B607
:10161000BD494610460FF69EFDF0E7287A01283FA7
:10162000D1687A01283CD1A87A01280FD16F71497D
:1016300046D4F86C010FF68EFD98F8000001282FB3
:10164000D1287A01282CD1687A012829D1E87A0199
:10165000281AD16E714946D4F86C010FF67BFD98BB
:10166000F8000001281CD109E018A320003804204C
:1016700000DC9E20002C04200001020212287A01C6
:10168000280ED1687A01280BD1287B012808D102C5
:101690002068714946D4F86C01BDE8F0470FF65A4E
:1016A000BDBDE8F087F0B490F8E34000250126FEC8
:1016B00049FD4AD0F870310978403A122C02D042E4
:1016C0002C09D010E090F8E400400602D499B196BD
:1016D0007309E0957307E090F8E400400602D451E6
:1016E000B1D67300E0D573012905D1907B012802A2
:1016F000D1D07B012803D0F0BC18460FF63FBDF0D7
:10170000BC40F6B83118460FF625BD90F8E3100C32
:101710002917D190F8E41049060FD4E3490978005D
:10172000290FD0E1494039896B0978002909D1D0C6
:10173000F8780140F6B8310FF60DBDD0F878010FFA
:10174000F61DBD704730B590F8E3104B2916D190C7
:10175000F8E410D54B4D06D4491A78A1F140014F59
:10176000F00104896B0BD4012A08D00978012904FF
:10177000D180F8C440102180F83F111C7030BD01A9
:101780002AFCD10A780021012A03D180F8C44080C4
:10179000F83F11197030BD70B50446FFF7D3FF2034
:1017A00046FFF7B3FF2046FFF77DFFC048BE4D0060
:1017B00078403D58B92046FFF7C1FE94F8E4009404
:1017C000F8E320C0F38011686B01F0CFFA14F8E35E
:1017D0002F6078C0F38011686BBDE8704001F08D18
:1017E000BB2DE9F04104460020C4F84401AE480195
:1017F00025403804F1E107807C00281ED1BE1CD4AE
:10180000F8840001688A6831469047002815D09412
:10181000F8E300FE2809D0042239462046FAF5B341
:10182000F800252046FFF7B7FFE9E725B90422397C
:10183000462046FAF5A8F80125F3E7BDE8F0811047
:10184000B50446F9F5E5FF606C0079022804D0BDC7
:10185000E81040002010F6FBBC10BD7FB5924E0092
:1018600024403E0546C0F844410F220121706A1011
:10187000F6A8FF38B30094019402940394C5F84489
:1018800041D5F82801694605F5947501F0C2FCE8D8
:101890006186480078002821D09DF80000B1281109
:1018A000D19DF80100317888420CD0307080074F0C
:1018B000F0807110D57E480068800103D40022308A
:1018C0006B01F0D2FF706A04B04FF40042BDE870C3
:1018D00040012110F601BF0A460021F0E77FBD104C
:1018E000B50446406D0168096888472068D0F8C48F
:1018F00010204688472068D0F8C8102046884794B2
:10190000F8E90030B12068D0F8B8102046884703C5
:101910002010BDE06B01684968884700B101209440
:10192000F8CB1041B994F8CA1029B994F8D4101121
:10193000B994F8B31001B10221084310BD70B55A33
:101940004C0546403C07220121606A10F63AFF012F
:10195000004FF0000001D0E07006E0A0740120E02C
:1019600070686F0168496A8847606ABDE8704080A6
:1019700022012110F6B1BE70B54B4C0546403C0526
:10198000220121606A10F61DFF00B10120474EE0E0
:1019900071C1B23078814220D0317001290DD1203F
:1019A0006B01F0DCFFA06A0168D1F8F411884702EE
:1019B0002803D0A06A0168896988473E48007810EA
:1019C000B110F674FA09E030780028D5F828010B38
:1019D000D0354A243A032101F019FD606ABDE87050
:1019E000402022012110F678BE2F4A203AF2E770FB
:1019F000B50546C06C0168496B884700282BD02A82
:101A00004C403CE06B01F02EFB4FF0804608B1E00B
:101A10007870B1E06B01F02FFB274989893231885A
:101A20004219D932460021206BBDE8704001F01CFC
:101A3000BFE06B01F020FB40F2B951884208D801A9
:101A400020A07428680021C2682846BDE8704010B4
:101A50004700223146E7E770BD1349134A403989F0
:101A60008A5180D0F840014FF47A710FF673BB7041
:101A7000B5044610F6FBFC800504D5606C0168D106
:101A8000F8F810884794F85C00401C84F85C00016A
:101A90002010F6E2FA2068D0F8A410204688470209
:101AA0004E0500A6F1400609E058A32000B4A4208A
:101AB0000078A42000B5A42000C80520000ED0B0F6
:101AC0007C60B9606C0DF6BFF828B9307C18B1297C
:101AD000462046F9F509FE2046FFF7BEFF294620BD
:101AE00046FFF785FF2046FFF746FFB06B02F0493F
:101AF000FA2046FFF723FFE06C0168496B884738FE
:101B0000B1606F0168496A88472068D0F8A810065C
:101B1000E0606C0DF698F820B92068D0F8B010207D
:101B2000468847E06C017902290DD0216C88420A71
:101B3000D14DB994F8670030B92068A16C0022D06B
:101B4000F8A03020469847BDE87040002010F68489
:101B5000BAFAF543BB7CB5FF4C0D466A4601A96055
:101B60006C02F050FA9DF8000046280CD32A46007B
:101B700021206B01F0FEFC2A460121206B01F0F9C7
:101B8000FC2A46022109E01E282A464FF0000104E3
:101B9000D3206B01F0EEFC2A460121206B01F0E915
:101BA000FC012D0ED12A460021206B01F0E2FC2A17
:101BB000460121206B01F0DDFC2A460221206B0149
:101BC000F0D8FC7CBD2DE9F0410446E24816460DF4
:101BD00000806B02D0052B02D12AE0052B21D046D4
:101BE0002B30D10078012814D120680823D0F8FCCC
:101BF000702046B847206802233246D0F8FC70298E
:101C0000462046B8472068212332462946D0F808A6
:101C10007102E02068D0F808712046BC46BDE8F0AB
:101C2000416047CC48403000780028F2D0002105C0
:101C3000E02068D0F808712046B84701212046BD51
:101C4000E8F04187E7F9E530B4C24DAC6B21B1044F
:101C50002B0DD0082B04D131E0042B08D0082B0E1B
:101C6000D0402B2FD12378012B22D0402303E02317
:101C700078012B1FD020E00468D4F8FC4015E06BFD
:101C800078082B23780BD0012B0BD0B24B40331BA1
:101C900078002B17D10368D3F8FC40082305E00136
:101CA0002B10D10368D3F8FC400423A44630BC6059
:101CB000478023E0E70823DEE70423DCE7237801FD
:101CC0002BFAD0F7E730BC704730B421B9A14C40B3
:101CD000342478002CF6D10468D4F80841A44630A6
:101CE000BC6047EFE72DE9F04104461D4690460FE2
:101CF000004FF0010610D02068D0F808C12046E05F
:101D000047002084F8546184F8530184F852013C60
:101D10002D22D03D2D61D12CE08E48816B097819A0
:101D2000B12068D0F808613CE083788A48A5F13A90
:101D300001403000F1380C02780CEB45000BB15A31
:101D4000BB35E04AB30C2948D2DFE801F03E3E063D
:101D50001326263E3E3E3E3E3E206808234246D0A5
:101D6000F8FC5039462046A84720682B23D0F808B5
:101D7000510BE0206808234246D0F8FC5039462039
:101D800046A84720680823D0F80851424639462023
:101D900046AC46BDE8F041604720682B464246D03D
:101DA000F8086139462046B446BDE8F04160470C6A
:101DB0002913D2DFE801F009090807060609090915
:101DC000090909E9E7D5E7C7E784F8546110F87411
:101DD0001D84F85311407884F852012EE530B45E2A
:101DE0004C14F81240102C07D0112C07D0122C07DD
:101DF000D0132C07D130BCE5E630BC73E730BC63B0
:101E0000E730BC20E75EE710B5022A01D0042010BD
:101E1000BD90F8A52049788A420ED080F8A5104DD3
:101E2000488B074FF08071006B08D54C4B1B689BAB
:101E30000102D44A0001F018FD002010BD0A46003E
:101E400021F8E77CB5044690F85401012828D144D4
:101E500048002584F85451007888B13E4894F853DE
:101E60001118303C4A417094F852118170D4F8280E
:101E70000102B01832BDE87040032101F0C7BAE09A
:101E80006C0168496B884700280AD00120CDE90021
:101E900005E06C012303220168CD6A04F25111A808
:101EA000477CBD7CB5044690F86501012827D12CFC
:101EB00048002584F86551007880B126480F220437
:101EC000F5AB71913040F61BFED4F8280102B02129
:101ED0004ABDE870409032102101F098BAE06C01E0
:101EE00068496B884700280AD00120CDE90005E049
:101EF0006C012310220168CD6A04F25511A8477CB9
:101F0000BD70B50446C06C0168496B884700282B3A
:101F1000D0092104F5A47040F6D5FE124801250031
:101F20007884F8480184F8C4502068D0F8F810206C
:101F30004688472046FFF7E0F984F865512046FFC0
:101F4000F7B0FF2046FFF7CDF984F854512046BD85
:101F5000E8704076E718A320005004200078A42001
:101F600000B4A420003804200070BD70B5F94C0501
:101F700046206B01F0F3FC4FF0FF320021206B0193
:101F8000F073FC2846FFF7BCFFA06A01688969BDB1
:101F9000E87040084710B50446FFF7B2FF2046BD81
:101FA000E81040F9F5E1BC10B504460068D0F8F43B
:101FB00010204688472068D0F81011204688472016
:101FC00068D0F81C11204688472068D0F8441120BA
:101FD0004688472068D0F83C112046884700208476
:101FE000F8C90084F8C70084F8C80004F8C40FA03A
:101FF00070607010BD70B5D74D0446D0F8400169CF
:102000007CAA2911D005F14002518889B1491E519D
:10201000804FF47A710FF69EF8E06C0168496B8886
:102020004700280ED1D4F84001BDE870400FF6A655
:10203000B80121A9710FF6A2F8A86A016889698818
:1020400047EAE770BD30B590F84921012502EA035F
:102050000451B1002C07D09A4380F8492100F8C4FC
:102060005FC179491EC17130BD002CFCD11A43807B
:10207000F8492100F8C45FC179491CF3E710B500A5
:10208000EBD10301F0070293F85611012404FA0280
:10209000F20A43D2B283F856218A4201D080F86511
:1020A0004110BD10B41946002290F8CA3006E084F1
:1020B0001894F84B418C4211D0521CD2B29342F684
:1020C000D8A54B5B7893420BD9024482F84B111090
:1020D000F8CA1F491C00F806190121017010BC70D4
:1020E0004710BCCBE710B500EBD10301F007049318
:1020F000F856216FF00101A140114083F85611916B
:102100004202D0012180F8651110BDF0B4002219FF
:10211000461346012700F24B1612E0851895F84B3E
:10212000C18C450BD1641EE4B280F8CA40A45D8521
:10213000F84B4190F8CA40A35580F8C470521CD2A5
:10214000B290F8CA409442E8D8F0BCCBE72DE9FC45
:1021500041044690F8C400012845D18048002584F8
:10216000F8C4500078012698B17A48D4F84B118011
:102170003040F8231F94F84F110171764894F849C4
:1021800011A0304170A0F16001097801291AD01E18
:10219000E0E06C0168496B884708B3CDE90065E071
:1021A0006C012302220168CF6A04F59F71B847CD04
:1021B000E90065E06C012309220168CD6A04F5A4F9
:1021C00071A8470CE06349896B097801290DD00596
:1021D00072604A0921A032D4F8280101F017F90FE2
:1021E000F63EFAC4F8D000BDE8FC810672F0E710B4
:1021F000B50446002084F8C7002046FAF5E0F9202F
:1022000046FFF71FFE2046BDE810404AE670B504C1
:102210004690F8C400002876D094F84B01002600C0
:10222000286FD004F1EC052A2813D004DC282824D8
:10223000D0292804D11AE04C280BD058281DD027CB
:102240002841D062283FD0A0F11E0108293DD81DA9
:102250003840E094F8EA0070B3401E84F8EA0020A9
:10226000680221D0F85021204690474AE084F8EADD
:102270006020680321D0F85021F5E794F8E9008048
:10228000281AD020680421D0F85021204690479485
:10229000F8EA004655606C94F8EA100268D2F8A893
:1022A000302A46984784F8E9602068D0F8B01020BA
:1022B00046BDE87040084724E0606C94F8EA1002DC
:1022C00068D2F8A430ECE7002007E0A0F15901083B
:1022D0002917D85838C0B2FF2813D03030C1B29473
:1022E000F8EA0094F8EB2090420BD2415594F8EABA
:1022F00000401C84F8EA0020680121D0F85021B287
:10230000E701E084F8C46070BD70B50446D0F86899
:10231000010EF634FF12480F4D0121007838B1014B
:102320002802D0022803D004E0686B017001E06A43
:102330006B10702971606C0168896988470021E819
:102340006A00F05CFC606C0168D1F88020BDE87028
:10235000400021104718A3200038042000B4A42016
:10236000004EA42000464900204870704744494868
:102370007C552808D148794FF4167218B10128030A
:10238000D0022804D08A8270474FF4966001E04F53
:10239000F4E1608882704710B5394C0346617C5582
:1023A0002909D1FFF7E3FF1846FFF756FB0122C1C9
:1023B00021601D0FF6F8FC206BBDE810404FF08047
:1023C00072304901F051BA10B5D0F870010EF6D64E
:1023D000FE2B4CA07808B1002000E00120A070285E
:1023E000480122C221801C0FF6DEFCA06B007800A1
:1023F0002807D1206BBDE810404FF08072214901C1
:10240000F033BA10BD10B5D0F874010EF6B7FE1C4B
:102410004C607C55280FD05520607419480122BFAC
:102420002111300FF6C0FC206BBDE810404FF0804A
:1024300072144901F019BAAA20EEE710B5D0F87865
:10244000010EF69CFE0E48417849B1002141700012
:102450006BBDE810404FF080720A4901F005BA08E0
:1024600021F4E7002180F8A5107047074909782179
:10247000B103480078C0F34000704790F8A500F918
:10248000E718A3200002040404B4A42000F74A5172
:1024900070F649428818314A8002880A8082888A08
:1024A00080C088C8807047F14A52780A70EF491896
:1024B000314A8842800A8802808A888280C988C11D
:1024C000807047EA4908707047E8480078704730E4
:1024D000B415460C4602462946A4F1807030BCA0D3
:1024E0002324F6BDBE30B415460C4602462946A448
:1024F000F1807030BCA02324F696BE01F0CCBB1056
:10250000B5FFF7FBFFBDE810400EF6ABBD10B504FC
:1025100046D0F888014FF416710EF61CFE02208496
:10252000F88C01D24830210A3041700121817003BA
:102530002184F88211C4F8840104F5C0712046BDDD
:10254000E810400822F9F51FBA2DE9FC41044608BD
:102550006800908888ADF80400C44E9DF80470FFB0
:10256000255C36202F1DD82021B01D40F657FBBF1B
:102570004A10895188884204D1BDF80230D588AB11
:10258000422FD3884204D2BDF802009188884228A5
:10259000D3BDF802001E2824D000252021B01D4004
:1025A000F63DFBBDF80200B080F770F7840022B161
:1025B00018F08C8979521C0844D2B2F084202AF693
:1025C000D3C4F88461ADB10220B070032084F882D6
:1025D0000102B004F5C0712046BDE8F0410822F9BF
:1025E000F5D2B9BDF802103A46B01DFFF77BFFC522
:1025F000B2D7E70120B0702820E8E7F0B59B4D0482
:10260000460A358BB027206870984E0220A870309B
:1026100078B8B32822684640F672FA9DF80320FF86
:1026200021104600236F4607EB030C5B1C9CF80649
:10263000C0DBB2604480B2202BF5D3BDF8263083D6
:10264000421CD1202A1AD830897188884205D1BD10
:10265000F80430B6F806C063450AD3884204D0BDFA
:10266000F80400B188884203D3BDF804001E280690
:10267000D1BDF80410B81DFFF72AFFC1B209B90196
:1026800020A870032084F88201C4F884510BB004A0
:10269000F5C0712046BDE8F0400822F9F574B9F89C
:1026A000B504460888ADF800008878002370490119
:1026B0002503268DF80200012821D002281FD00111
:1026C000F10800891DFFF7EFFE84F87030606C019F
:1026D00068D1F8E01088470168C96D8847634826CB
:1026E000210A3008224170857084F88261C4F88420
:1026F0000104F5C0712046BDE8F840F9F544B95B26
:102700004A012010708B718D81CB810C204881088B
:10271000812068D0F8B010204688472046F9F5A6F9
:10272000F81E21D4F888010EF60CFD84F88C61CDDA
:10273000E738B50446406F03226B460168CD680157
:1027400021A8474A4D4C3508B140782871606C0C7F
:10275000F6FDFE4649026841F8522F8088888024A1
:10276000F61BFC10B924F615FC2873102084F8829F
:1027700001082204F5C0712046C4F88451F9F5031C
:10278000F938BD0E2180F8821138493E31C0F884F5
:1027900011082200F5C071F9F5F6B8F8B5044668DD
:1027A0004602F658FB009840F68BF91C2801D91C0C
:1027B0002002E0009840F684F92C4EC5B220362A5B
:1027C00046B01C009940F69BF9AD1C84F882510874
:1027D0002204F5C0712046C4F88461F9F5D4F8F8F4
:1027E000BD70B51D460446B22953D1022A51D160AD
:1027F0006C0168CA6801219047E06C0168CA6801F1
:10280000219047206C0168CA680121904701200F80
:10281000F6ECFC1648007838B11E21D4F888010E79
:10282000F690FC032084F88C016A78272A22D00ACB
:10283000DC242A12D0252A14D0262A2AD12946207F
:1028400046BDE870402BE7292A19D0302A1CD04019
:102850002A1FD12046BDE870406AE72046BDE870D7
:10286000409BE72046BDE870408BE70000C4A320F2
:10287000005808200029462046BDE87040BDE629E2
:10288000462046BDE870405FE629462046BDE87018
:10289000403CE670BD7CB50546C06B01680969889F
:1028A00047040016D02078E02813D12A213448406C
:1028B000F609FAA2783248616840F621F900210150
:1028C00020CDE90001E86C01232A220168CC6A2CA2
:1028D00049A047E86B0168496902B0BDE87040084B
:1028E0004738B50546E02085F880012648817908FB
:1028F00030FFF7CCFD244C00232846D4E904120E07
:10290000F64EFCC5F8880102221E216846FFF7EA50
:10291000FDBDF80000208148F2C02060804FF47EA9
:1029200041A180E08038BD184910B5034600200859
:10293000701449891D881CFFF7B6FD002083F870CC
:1029400000586C0168D1F8E01088470168C96DBD76
:10295000E81040084710B50446D0F888010EF60E7E
:10296000FC94F88C11022905D0032907D12046BD1B
:10297000E81040D8E7BDE810400FF698BA10BD0047
:1029800000C4A4200058082000C4A3200038B504C7
:102990009C00940BF6F0FF04468148206000F0BBD9
:1029A000FBC4F89000204638BD0CF6B2BE10B5FF4F
:1029B000F7FBFFBDE810400EF654BB70B50546F8B6
:1029C000F5E3FCFFF74EFD774C206800F0C7FF767B
:1029D000484FF080420068017821B1012904D002FB
:1029E0002905D009E0042104E04FF4006101E04F23
:1029F000F40021206800F038FF2846BDE870400C44
:102A0000F65BBF70B50546F8F5BFFC696D654C0314
:102A10002902D0062903D01BE0644A002115E020DA
:102A20006800F09CFF60480068017821B101290529
:102A3000D0022907D00CE05E4A802106E05D4A4FB3
:102A4000F4004102E05C4A4FF40001206800F00C01
:102A5000FF5A48017821B100210170206800F07E02
:102A6000FF2846BDE870400CF6B4BE70B50546F8C8
:102A7000F58BFC0446686D4C4E03280DD12068D0C0
:102A8000F8B010204688473068017800F018FA0145
:102A900022002130680FF687F93068424B00782019
:102AA000B1012805D0022807D00CE0454A102106C4
:102AB000E0444A4FF4805102E0434A4FF480111839
:102AC0006800F0D2FE0122C12140480FF649F920EA
:102AD00046FFF74CFC2046FEF7BFFF3D490020486B
:102AE000703C49012008702846BDE870400CF6741F
:102AF000BF10B50446F8F548FC2B482A4B00680186
:102B00007821B1012905D0022907D00CE0324A40D2
:102B10002106E0324A4FF4804102E0314A4FF4800E
:102B200001186800F0A1FE2046BDE810400DF677C0
:102B3000B870B5044690F87F002A49401CC0B284A2
:102B4000F87F0091F828100025884206D994F87E75
:102B500000401C84F87E0084F87F50A06908F69637
:102B6000FB94F87E10884205D9206ABDE8704001C8
:102B7000210EF6D5BAA06801684A6E2146904784B6
:102B8000F84C5094F8800020B1012084F84B008468
:102B9000F880502068D0F8B8112046BDE870400891
:102BA00047DC9C200048A320004CA3200004080818
:102BB000400080804080008040808000401EA32034
:102BC000004450500050485000505048001DA32071
:102BD0000058A3200028A320000448484044084887
:102BE000404448084074092000704710B500220492
:102BF000461146104621F6AAF8204610BD30B52DE4
:102C0000480C469FB00178A14244D0047011AD3009
:102C100021281D40F657F82848006811903CB1273C
:102C200048818868460FF6CBF902AC78B115E068A8
:102C30004602F610F900983FF643FF401C8DF84419
:102C40000000983FF63DFF024600990CE00A228DF5
:102C5000F807201BA1204640F603F89DF807202125
:102C600046501C8DF84400A81C3FF649FF0C25482F
:102C700020FEF577FE044634206080A58004F10C28
:102C800000342211A93FF63BFF204602F6EFFE205A
:102C900046FEF50AFF1FB030BD10B50121FFF7AEAB
:102CA000FF0A4800680168D1F88020BDE8104000A4
:102CB000211047000048A42000409C2000642C20E4
:102CC000004E6F2056657273696F6E000040A3203E
:102CD0000070B5044600F01FFAD54D60600023D5A2
:102CE000E9021220460EF65BFAA060D5E904120054
:102CF0002320460EF654FAE060204670BD10B50061
:102D00002204461146104621F621F8204610BD1037
:102D1000B58AB00C46282168463FF6D4FF04EB4440
:102D20000000EB0410012101EB4001262268460F50
:102D3000F617F8C048222201A90068806940693F5F
:102D4000F6DEFE0AB010BD10B50446012200210FC8
:102D5000F607F82078012803D0022801D0002020AF
:102D600070C1B22046BDE81040D1E72DE9F05F14F4
:102D70004688460546F8F508FBAD4EDFF8BC9200E4
:102D8000274FF0010A4FF0020BB8F1000F0CD0D022
:102D9000F868010EF6F3F999F80000DFF8A0822038
:102DA000B398F80000C8B12CE099F8001000292A67
:102DB000D040F6B831082C0BD00F2C0BD0162C229B
:102DC000D186F802B0D0F86801BDE8F05F0EF6C217
:102DD000B9B770F7E786F802A0F4E74FF42F790847
:102DE0002C04D00F2C04D0162C0FD00AE0B77001A1
:102DF000E086F802A0E8680EF6C1F94946E8680ED8
:102E0000F6A9F988F80070BDE8F09F86F802B0F1E5
:102E1000E710B501EB410000EB011001248AB0047A
:102E2000EB4001042268460EF69BFF9DF8001084DB
:102E300048802903D000210170084682E704700110
:102E4000207FE710B50178FFF7E3FF002806D0796F
:102E500048006801684969BDE81040084710BD7026
:102E6000B50546F8F591FA0446FFF74AF8714800AF
:102E7000680168896988472068D0F8B010204688C2
:102E8000470122002128460EF68EFF29782846FFAA
:102E9000F73EFF2846BDE87040D3E770B50D460405
:102EA00046F8F572FA2078A84208D0664800680013
:102EB000F055FD25702046BDE87040D0E770BD108C
:102EC000B58AB00C46282168463FF6FCFE594822D8
:102ED00022016801A8896949693FF611FE80208DA9
:102EE000F8000004EB440000EB0410012101EB406A
:102EF00001262268460EF657FF23E7F0B44E4B003A
:102F00002501261B784A4C8068342A02D00B2A06F9
:102F1000D007E009B1257004E07BB1267001E0190B
:102F2000B16570012B03D008E03BB16670F9E72171
:102F300078012902D16178012902D0F0BC0EF61E79
:102F4000B9F0BC40F6B8310EF605B92DE9F04105EF
:102F5000468CB080680EF612F9F8F516FA04462889
:102F60002168463FF6AFFE00268DF828602046FF18
:102F7000F7F9F92046FFF775FA324F386800F0EE9E
:102F8000FC3148007838B92046FEF7BAFF294800DE
:102F9000680168896988472E700122002128460E41
:102FA000F602FF00244FF00108012204F1C0010ADB
:102FB000A80EF6F9FE04EB440000EB041108EB4107
:102FC00001262268460EF6EFFE641C052CECDB1F82
:102FD00049552001220870BF211C480EF6E4FE1C52
:102FE000480122C12106700EF6DEFE1A480122C2F7
:102FF000210670194806700EF6D6FE184A18493890
:103000006800F032FC0E480A4A03210670121D685F
:103010006800F0FCF90CB0BDE8F08110B50446C0C2
:10302000680EF6ACF8024881782046BDE8104034BE
:10303000E74CA4200040A3200058A320001CA3209C
:103040000028A3200048A32000B4A4200029A32026
:10305000001DA3200019A320001AA32000040808C3
:1030600040020404040649C06D8989884201DC01DC
:1030700020704700207047B0F85C0080B2704700B5
:1030800000C8052000F8B504460FF666FE0FF6A34B
:10309000FE002538B100954FF400730F2201216026
:1030A000680FF684FA012000904FF48046334605FD
:1030B00022022160680FF67AFA0095334608220151
:1030C0002160680FF673FAF8BD10B504460FF6E1FB
:1030D000FA6060012010F684FD206010200DF69D3E
:1030E000FF32231122FE490EF6BCF8A060FD480015
:1030F00023D0E9031220460EF652F8E0602046FF86
:10310000F7C1FF204610BD704710B510200DF685A1
:10311000FFBDE81040D8E710B5F24CA068002802C7
:10312000D160688047A06010BD2DE9FC41002000FF
:10313000904FF4004614460D460190ADF802600F22
:10314000F6A8FA074623462A4669460FF619FB32C7
:1031500046012138460FF6C0FABDE8FC8108B501EA
:10316000224068009211B140F2092301E04FF400BF
:10317000730F2201210FF61AFA08BD2DE9F04190D4
:10318000460D46022021F6C9F900244FF4641729A0
:10319000E00026D7F8180140F01000C7F818012801
:1031A0005D4006000E2855D7F80411890502D54068
:1031B000F0010001E000F0FE002855D7F8180120CA
:1031C000F01000C7F81801022021F6A7F9761CF6C6
:1031D000B2082EDED3D7F8180120F01000C7F81877
:1031E00001641CE4B24445D3D3BDE8F08110B54F6F
:1031F000F46414D4F8182122F02002C4F818210134
:103200002204F58C74FFF7B9FF206840F0200020FD
:103210006010BD2DE9FF4100220E4680460092015C
:1032200092029269460392FFF7E1FF9DF80000B118
:103230002803D0102501246F4607E00225FAE7395C
:10324000194046FFF7D3FF641CE4B2AC42F7D39DAC
:10325000F800000B21B1EB101F07D1102269463096
:10326000463FF64DFC012004B0BEE70020FBE72DF1
:10327000E9F04190460C46104624F622FC064642F0
:103280004621463FF63CFC00244FF4641730E00032
:1032900025D7F8180120F01000C7F81801305D009C
:1032A00006D7F8180102D540F0400001E020F040B8
:1032B00000C7F81801305D40003055D7F8180140BC
:1032C000F01000C7F81801022021F627F96D1CED57
:1032D000B2082DDDD3D7F8180120F01000C7F81878
:1032E00001D7F8180120F04000C7F81801641CE469
:1032F000B24445CCD33046BDE8F04124F6E3BB2DC3
:10330000E9F0414FF464158046D5F8140116460FD4
:103310004640F48070C5F81401052021F6FEF8003F
:103320002415E0D5F8180120F02000C5F818013167
:103330001901224046FFF79BFFD5F8180140F02005
:1033400000C5F818011E2021F6E8F8641CE4B2BCA0
:1033500042E7D3052021F6E1F8D5F8140120F480E6
:1033600070C5F8140140E7F8B50446406800251917
:10337000B301214FF48C4600913346052202210F00
:10338000F615F9009533460822012160680FF60E04
:10339000F9009500230922012160680FF607F90062
:1033A0009533460622022160680FF600F900950465
:1033B0002233460221606826E00023052202210014
:1033C000950FF6F4F8009500230822012160680F9C
:1033D000F6EDF8009500230922012160680FF6E65A
:1033E000F8009500230622022160680FF6DFF8003E
:1033F0009500230422022160680FF6D8F80095009A
:10340000230F22012160680FF6D1F8F8BD2DE9F0F5
:1034100041344D044686B0287890460F466E46707B
:10342000B18DF800100A464146701C3FF668FBA0BB
:1034300068112201688B686946984706B0D4E60F88
:1034400022012160680FF6BDF998B18DF800703A3D
:10345000464146701C3FF653FBA068112201688B61
:103460006869469847012028701421E0680DF672BB
:10347000FEE3E74FF46410D0F8141141F48071C0FA
:10348000F81411424639462046FFF739FFD5E710B8
:10349000B50446C0680DF672FE0F22012160680F68
:1034A000F690F9D0B94FF46410D0F8141141F480BB
:1034B00071C0F81411A068016809698847014611B4
:1034C0002209483FF61CFBA0680168496988470645
:1034D0004A204612F8011BFFF712FFA06801680599
:1034E000E0F0A4200064A4200042A82000496888DD
:1034F0004728B1E068BDE8104014210DF62BBE024C
:10350000490020087010BD000064A4200070B5FFC1
:103510004D04460023D5E905120DF641FE6060D545
:10352000E90712002320460DF63AFEA060D5E9090E
:1035300012002320460DF633FEE060D5E90B1200A1
:103540002320460DF62CFE2061D5E90D1200232024
:10355000460DF625FE606100202060286020467040
:10356000BD10B5002204461146104620F6EFFB20A0
:103570004610BD38B5E64800244FF480430068018A
:103580002561B1012913D0022917D003291BD004CA
:10359000290AD1F2B100940722002103E02AB100E8
:1035A000950A2201210FF602F838BD0094F8E712BF
:1035B000B100950B22F5E70094FBE712B100950CE2
:1035C00022EFE70094FBE712B100950D22E9E70036
:1035D00094FBE70095DFE770B51E460C460546CB29
:1035E0004BDDE904010C331A55CA4A22F814600C69
:1035F0003222F81400A3F1080011B100220255078D
:10360000E001210155002221462846FFF7B2FF3193
:103610004664B1012C0CD0022C0CD0032C0CD0042D
:103620002C0CD16869BDE870400DF694BD6868F94E
:10363000E7A868F7E7E868F5E72869F3E770BD2DC4
:10364000E9FC5F15460E460746F7F59EFEB14918A0
:103650003151F82600A84248D041F82650012231C5
:10366000463846FFF786FF00244FF4FA7A4FF47A83
:103670007B4FF0FA084FF06409A6B1012E56D00234
:103680002E74D0032E73D0042E2FD178690DF676C8
:10369000FDB5F1805F6CD06CDC002D26D0B5F1005B
:1036A0006F23D1C9E078680DF669FD082D2BD00E87
:1036B000DC002D1AD0012D1AD0022D20D0042D149B
:1036C000D1CDE900B421465B46FF2238460BE0101D
:1036D0002D20D0402D23D0802D07D1642321460FEB
:1036E00022CDE900913846FFF776FFBDE8FC9FCD7B
:1036F000E900A421464FF4FA6301223846F3E7FAC1
:1037000023214603220EE00A20CDE9000421465B76
:1037100046012297E0214640F6B8330122E0E7FA5D
:103720002321460622CDE900813846DCE7B8680D42
:10373000F625FDB5F5006F24D00BDC002DD5D0B5F6
:10374000F5807F17D0B5F5007F12D0B5F5806FCC2E
:10375000D114E0B5F5805F16D0B5F5005F25D0B582
:10376000F5804F14D0B5F5004FBFD117E021E040F0
:10377000E072E054E0962003460A2260E0FA230358
:103780002207E05B4652E040F6B833012208E0FA37
:10379000230622CDE9008431463846A4E764230F8E
:1037A00022CDE90094314638469DE70A205B460168
:1037B0002245E0F8680DF6E2FCB5F5002FE1D00BEC
:1037C000DC002D92D0B5F5803F36D0B5F5003F43F3
:1037D000D0B5F5802F89D1D1E7B5F5801FD3D0B50D
:1037E000F5001FE2D0B5F5800FD1D0B5F5000FAED2
:1037F000D1D4E738690DF6C2FC002D9FD0B5F18019
:103800007F06D0B5F1007F27D0B5F1806F9FD1B58D
:10381000E702B031463846BDE8F05F0022A9E6B5C0
:10382000F1005F11D0B5F1804F91D15346CDE90041
:1038300034FF223146384656E7C82003460F22CDD2
:10384000E90004314638464EE7CDE9009B4FF49637
:103850007301223146384646E7CDE900A44FF4FA19
:10386000630122314638463EE72DE9F04101240646
:10387000460020274607FA00F32343401CC0B2DC71
:10388000B20528F7D3306890430843204930600AD6
:1038900068904261D000250860E0070CD0326807CC
:1038A000FA05F0024001D1072D05D100213046FF75
:1038B000F7C6FE24F00104A0070ED505F10800327A
:1038C0006807FA00F0024001D1072D05D10121302F
:1038D00046FFF7B5FE24F0020460070ED505F1108F
:1038E00000326807FA00F0024001D1072D05D1022D
:1038F000213046FFF7A4FE24F00404200715D50567
:10390000F11800326807FA00F0024005E078A420C0
:10391000003CA3200054A8200001D1022D05D103B2
:10392000213046FFF78CFE24F00804E0060ED50592
:10393000F11B00326807FA00F0024001D1032D05A7
:10394000D104213046FFF77BFE24F01004002C0345
:10395000D06D1CEDB2082D9FD3BDE8F081F8B50401
:1039600046C04800250560256060680DF607FCA08C
:10397000680DF604FCE0680DF601FC20690DF6FE0A
:10398000FB60690DF6FBFB0126B74CB70300963BC5
:10399000460A22314620680EF609FE00963B460B89
:1039A00022012120680EF602FE00963B460C220101
:1039B0002120680EF6FBFD00963B460D22012120DA
:1039C000680EF6F4FD00953B460722002120680EA4
:1039D000F6EDFDF8BD2DE9F041044640680DF6CE48
:1039E000FBA04DA24E0C35287890B1A5F108073800
:1039F00078A0B1012200212046FFF7BBFD0020384E
:103A000070A6F10C000188C1B160680DF6A3FB1B24
:103A1000E020463268BDE8F041002125E700221190
:103A2000462046FFF7A6FD0120387090481838015F
:103A3000886068BDE8F0410DF68DBB287820B9009C
:103A40002120463268FFF710FF2878401EFE2883A9
:103A5000D2287081E72DE9F041044680680DF68E8A
:103A6000FB804D824E0C35687890B1A5F10807783F
:103A700078A0B1012211462046FFF77BFD00207897
:103A800070A6F10C004188C1B1A0680DF663FB1B64
:103A9000E020467268BDE8F0410021E5E600220121
:103AA000212046FFF766FD012078707048183841E4
:103AB00088A068BDE8F0410DF64DBB687820B900DC
:103AC0002120467268FFF7D0FE6878401EFE28006D
:103AD000D2687041E72DE9F0410446C0680DF64E0A
:103AE000FB604D624E0C35A87890B1A5F10807B87F
:103AF00078A0B1012202212046FFF73BFD0020B84B
:103B000070A6F10C008188C1B1E0680DF623FB1BA3
:103B1000E02046B268BDE8F0410021A5E60022029F
:103B2000212046FFF726FD0120B870504818388143
:103B300088E068BDE8F0410DF60DBBA87820B9001B
:103B4000212046B268FFF790FEA878401EFE2800AC
:103B5000D2A87001E72DE9F041044600690DF60E88
:103B6000FBF7F512FC3F4D414E0C35E97891B1A5BC
:103B7000F10807F878D0B1012203212046FFF7F9B8
:103B8000FC0020F870A6F10C00C188F1B120690D8D
:103B9000F6E1FA21E0FEF769FCF26810B14FF0801F
:103BA0007100E000212046BDE8F0415DE6002203FF
:103BB000212046FFF7DEFC0120F8702C481838C1A0
:103BC000882069BDE8F0410DF6C5BAE87820B90053
:103BD000212046F268FFF748FEE878401EFE2800E4
:103BE000D2E870B9E62DE9F041044640690DF6C609
:103BF000FA1C4D1E4E0C35287990B1A5F1080738F6
:103C000079A0B1012204212046FFF7B3FC0020383F
:103C100071A6F10C000189C1B160690DF69BFA1B18
:103C2000E020463269BDE8F04100211DE600220493
:103C3000212046FFF79EFC012038710C48183801FE
:103C4000896069BDE8F0410DF685BA287920B90090
:103C50002120463269FFF708FE2879401EFE280021
:103C6000D2287179E678A420003CA320006CA8201B
:103C700000F0B587B0DDE90C45DDE90E67DDE91040
:103C8000CE8DE8F050FDF7A0FB9649974A01600001
:103C900021517007B0F0BD10B59449016000F23DAC
:103CA0001000F0A7F9401E00F052F91038FFF72677
:103CB000F80838FEF79AFF1838FFF752FCBDE810F5
:103CC00040A0F58670F8F5B0B810B5FFF7E4FFBD79
:103CD000E810400DF6C6B908B5002000908248D023
:103CE000E9012301200DF68BFE08BD59B1D0F87C07
:103CF0001140F27122B1FBF2F18AB20146AFF22912
:103D0000001DF61CBD1DF62DBD10B50446FDF73394
:103D1000FE7748006800F035F92046FDF70FFE7287
:103D20004801214170007808B345F2E470C4F87C82
:103D3000012046FFF7DAFF0122C2216E480EF6107D
:103D4000F86C4A117819B1012901D0002010706B6C
:103D500048002269490068FFF787FD2046F8F56DA5
:103D6000F867480068BDE81040FEF7EDBF2046BD8B
:103D7000E81040FDF79EBB2DE9F04104465A48008B
:103D80007890B394F85C005F4E401C84F85C00307F
:103D9000784FF4481528B1D5F8980040F01400C5C4
:103DA000F898002068D0F8A41020468847074620DD
:103DB00068D0F8A8102046884739462046FDF717F6
:103DC000FE2046FDF7D8FD4A48006800F0DAF820EA
:103DD00046FDF7B4FD3078002804D055F8980F2040
:103DE000F014002860BDE8F081FFE72046BDE8F050
:103DF00041FDF73DBE10B504463B48007848B194FC
:103E0000F8E000F0B1401E10F0FF0084F8E000057B
:103E1000D017E02046BDE81040F8F56DBB2068D013
:103E2000F8CC100CE00078082802D0FE2809D10355
:103E3000E02068D0F8D01002E02068D0F8E8102028
:103E4000468847E06B0168096988470028EAD12065
:103E500068D0F8B4102046BDE81040084710B504FB
:103E60004621480078B8B1606D016809688847202C
:103E700068D0F8C410204688472068D0F8C81020C1
:103E8000468847E06B01684968884700B101209483
:103E9000F8CB1071B904E02046BDE81040FDF71FD3
:103EA000BD94F8CA1029B994F8D41011B994F8B394
:103EB0001001B10221084310BD0B4A12780AB1006B
:103EC000207047F8F544B9084B1B78002B01D1F757
:103ED000F5DEBD704710B50168CA6D002190472B13
:103EE0002010BD000040A02000B4A42000DC9E20D3
:103EF0000050A320001AA320000102021248A320B0
:103F0000004CA32000E009200010B50CF6B7FF0D0F
:103F100049016010BD0C4A12780AB1002070470DAB
:103F2000F62EB80DF643B810B5FFF7FBFFBDE8104D
:103F3000400DF697B8044A1278002A01D10CF6F722
:103F4000BF70470000649C2000B4A420007047109C
:103F5000B500220446114610461FF6F8FE20461012
:103F6000BD10B504461F480122006801782046C0F4
:103F7000310DF6F6FE207808B1012020701A49882C
:103F80007010BD2DE9F0410446F7F5FEF9174E809B
:103F90004600270622012130680EF613FC020012AB
:103FA0004D39464FF0010005D021702A7802B9281A
:103FB00070697004E020706A7802B9687029702016
:103FC00078A978884206D04046FEF7CCF9F7F5DCB0
:103FD000F92078A8704022012130680EF67DFB3868
:103FE00046BDE8F0814CA32000C0A420003CA320E3
:103FF00000704710B500220446114610461FF6A671
:10400000FE204610BD70B50B4E0D461446306801BB
:1040100068096888473068FFF72EF828806421A077
:10402000F2B950484304494989A1F2B95190FBF1D2
:10403000F0207070BD54A32000C805200010B511F9
:10404000F61DFEBDE810400DF60CB811F617BE4087
:104050006D704710B5806907F619F9002800D00186
:104060002010BD10B500F004F8BDE810400CF6F9C2
:10407000BF10B50C49016000F23D10FFF7BAFF40D8
:104080001EFFF765FF1038FEF739FE0838FEF7AD62
:10409000FD1838FFF765FABDE81040A0F58670F707
:1040A000F5C3BE0000DC9E20000349097809B10079
:1040B000207047FFF7D3BE0000C4A3200010B50452
:1040C00046C06B0168096988470078E028204603EC
:1040D000D0BDE81040F8F533BBBDE81040FEF7DA7C
:1040E000BB2DE9F8430F46089C00941D46164680F8
:1040F000461978FEF775FB2B463246394640460096
:1041000094F7F558FFBDE8F883024901480860704C
:10411000473968200000042000037D09D70000050E
:104120000A00000000D70001053503191000D70070
:10413000040F350D3506190100090001350319007A
:1041400001D70005053503191002D700060B350904
:1041500009656E09006A090100D700090A350835AA
:1041600006190100090100D7010031252F42726FA5
:104170006164636F6D20426C7565746F6F74682045
:10418000576972656C657373204B6579626F6172F4
:10419000642053445020536572766572D701010A3A
:1041A00025084B6579626F617264D702000535039B
:1041B0000901007D16D70000050A00010000D700A4
:1041C00001053503191124D700040F350D350619E3
:1041D00001000900113503190011D7000505350349
:1041E000191002D700060B350909656E09006A0926
:1041F0000100D700090A3508350619112409010103
:10420000D7000D11350F350D3506190100090013C2
:104210003503190011D701003F253D42726F6164DB
:10422000636F6D20426C7565746F6F746820576999
:1042300072656C65737320204B6579626F6172647F
:10424000202020202020202020202020202020206E
:104250002020202020202020D701010A25084B659E
:1042600079626F617264D7010212251042726F6128
:1042700064636F6D20436F72702E2020D70201039C
:10428000090111D70202020840D70203020821D710
:104290000204022801D70205022801D70206FF0105
:1042A0006E36016B36016808222601630501090696
:1042B000A101850175019508050719E029E7150099
:1042C0002501810295017508810395057501050891
:1042D0001901290591029501750391039506750849
:1042E000150026FF000507190029FF8100C0050CF5
:1042F0000901A101850215002501750195120A9495
:10430000010A92010A83010A23020A8A010A820130
:104310000A21020A24020A25020A26020A270209A1
:10432000B609B509B709CD09E909EA09E28102959B
:104330000175068103C0050C0901A10185089501DD
:104340007510150026FF0319002AFF038100C00520
:104350000C0901A101850305010906A10205060951
:104360002015002564750895018102C0C00501096A
:1043700080A101850415002501750195010982813F
:1043800002950175078103C0050C0901A10185FF94
:1043900005069501750219242926810275068101F9
:1043A000C005010906A101850C05071500250119A5
:1043B000002970750195788102C005010903A101EA
:1043C00085B1A100150026FF0009B875089529815F
:1043D00000C085B2A1009529750809F2150026FFD5
:1043E000009102C0C0050C0901A10185111500252D
:1043F0000175019503810175019501050C09B881CD
:104400000206FF0009038102750195038101C0D7EF
:1044100002070A35083506090409090100D702090F
:10442000022801D7020A022801D7020C030913004F
:10443000D7020D022800D7020E0228017D0DD700F9
:1044400000050A00010001D700010535031912001B
:10445000D700040F350D3506190100090001350399
:10446000190001D700060B350909656E09006A09B4
:104470000100D700090A35083506191200090100A4
:10448000D7010031252F42726F6164636F6D204246
:104490006C7565746F6F746820576972656C6573AD
:1044A00073204B6579626F61726420506E502053A7
:1044B0006572766572D701010A25084B6579626FCE
:1044C000617264D7020003090103D70201030905E1
:1044D000ACD702020309024FD7020303090109D72F
:1044E0000204022801D702050309000200000900A6
:1044F000000000000000000000A3B30100ADB30104
:10450000009F97200091972000000000000000000D
:1045100000BD660100C16601002966010089962080
:10452000008D6601008F66010091660100996601A9
:10453000009D6601009F660100A3660100A7660159
:104540000055050100AB660100AF660100B36601CE
:1045500000B7660100BB660100AB050100B30501B1
:1045600000C5660100E9660100779620007B962071
:1045700000C1050100FF0501000F0601006996203A
:10458000000000000000000000DB040100F5040151
:10459000007942010083420100934201004D46012F
:1045A0000017470100A9420100C7420100BB4301B7
:1045B00000E95501000F050100550501008943017F
:1045C0000089050100A9430100AF430100394601FC
:1045D00000AB050100B3050100574C010065430124
:1045E00000FD80200001812000C1050100FF0501C0
:1045F000000F0601004F430100B5430100D94301FC
:104600000083440100BF4501001D460100FD460135
:10461000000D47010033470100394701003F4701C2
:1046200000B5470100D54701002D4801004B480166
:1046300000C74801000949010061490100BD490165
:1046400000654A01007F4A0100C54A0100C34B01D1
:1046500000F14B01000B4C0100254C0100814C0185
:1046600000934C0100A54C0100A94C0100AD4C0188
:1046700000014D01008D4D0100BF4D0100ED4D01C8
:1046800000F74D0100134E0100314E01003D4E0177
:1046900000474E01004D4E0100534E0100594E019E
:1046A000005F4E0100934E0100578120000F8120D2
:1046B00000DD500100BF8120001B52010063520148
:1046C000008B520100D9520100FB520100458220AB
:1046D00000B5540100115501004D550100875501E9
:1046E000001B560100AB560100295701005F57011E
:1046F00000DD570100E55701000B580100935801F8
:1047000000D958010061590100F15901005B5A01BB
:10471000005F5A0100E55A0100475B01009F5B0101
:1047200000F55B0100F95B0100FD5B0100015C012C
:1047300000055C01000B5C0100515C0100595C014B
:1047400000A15C010085822000D95D0100275E0187
:10475000004F5F0100A35F0100CF5F01002F6001E8
:1047600000F16001003F61010097610100156201E5
:10477000003962010069620100A7972000A3972019
:10478000000000000000000000C5972000B797203F
:1047900000076C2000BF762000F30C0000FD0C0029
:1047A00000030D0000D9150000150D00002B0D00B1
:1047B000001F160000C96B20000917000099A30410
:1047C00000311700007F17000087170000FB0D0065
:1047D00000070E0000090E00000B0E00000D0E0079
:1047E00000190E0000C3712000936F2000FB17001A
:1047F00000D91700000D0B0000C90F0000F90F00D1
:104800000037100000A3180000A5100000A9100038
:1048100000E9762000D91000000D1100002B1100D6
:10482000009B110000CB110000E311000033702049
:10483000004B1C0000FB762000A5722000531900DD
:104840000061792000ED1A00005B752000356F20B3
:1048500000AF6F2000437920007F1D0000431E0041
:1048600000931E0000951E000031752000231F00DC
:1048700000251F0000271F00003F1F0000671F00CA
:1048800000A178200099772000F77720005F78203A
:1048900000812000009720000099200000AF200038
:1048A00000D32000002F2100003D2100005F2100E7
:1048B0000083210000A1210000B3210000D52100C8
:1048C0000029220000A9220000C3220000E72200E4
:1048D00000F522000017230000212300005F2300C1
:1048E00000632300000000000000000000EB9320A4
:1048F000001D9420005D942000BF762000F30C0082
:1049000000FD0C0000030D0000D9150000150D007E
:10491000002B0D00001F160000C96B2000091700B6
:104920000099A30400311700007F170000871700CB
:1049300000FB0D0000070E0000090E00000B0E002A
:10494000000D0E0000190E0000CB942000936F2084
:1049500000FB170000D91700000D0B0000C90F0065
:1049600000F90F0000371000000D962000A5100080
:1049700000A9100000E9762000D91000000D1100F8
:10498000002B1100009B110000CB1100001B962092
:1049900000B195200049952000FB762000A57220EB
:1049A000005319000061792000ED1A00005B7520AA
:1049B00000356F2000AF6F2000437920007F1D007D
:1049C00000431E0000931E0000951E00003175205C
:1049D00000231F0000251F0000271F00003F1F00AD
:1049E00000671F0000A178200099772000F777204A
:1049F000005F7820008120000097200000992000AF
:104A000000AF200000D32000002F2100003D210036
:104A1000005F21000083210000A1210000B32100DC
:104A200000D521000029220000A9220000C3220095
:104A300000E7220000F522000017230000212300D8
:104A4000005F23000063230000000000000000005E
:104A5000004F7C2000537C20005D942000BF762016
:104A600000F30C0000FD0C0000030D0000D9150040
:104A700000150D00002B0D00001F160000C96B2053
:104A8000003598200099A30400311700007F17001B
:104A90000087170000FB0D0000070E0000090E0044
:104AA000000B0E00000D0E0000190E0000CB94202C
:104AB00000936F2000FB170000D91700000D0B00BA
:104AC00000C90F0000F90F0000371000000D9620FC
:104AD00000A5100000A9100000E9762000D9100000
:104AE000000D1100002B1100009B110000CB1100E4
:104AF000001B962000FD97200049952000FB7620A2
:104B000000A57220005319000061792000ED1A0001
:104B1000005B752000356F2000AF6F2000437920C7
:104B2000007F1D0000431E000011982000951E000C
:104B30000031752000231F0000251F0000271F00E3
:104B4000003F1F0000671F0000A178200099772018
:104B500000F77720005F7820008120000097200078
:104B60000099200000AF200000D32000002F21007A
:104B7000003D2100005F21000083210000A12100F1
:104B800000B3210000D521000029220000A9220045
:104B900000C3220000E7220000F5220000172300D6
:104BA00000212300005F23000063230000010203B3
:104BB00004059901050403020100000000C4A420BB
:104BC00000BC0300000AB00118A320000000000090
:104BD00000000000000000000000000000000000D5
:104BE00000000000A3000000A6580100A6516200CA
:104BF00000000000000000000000000000000000B5
:104C000000000000000000000000000000000000A4
:104C10000000000049772000000000005D7A2000BD
:104C200000000000EB7A2000000000001B7B200049
:104C300000000000597B2000000000008F7B200056
:104C4000000000000070006F000000000000000085
:104C500000B600CD00B500E200EA00E9A2000000C5
:104C6000000000000000000000000000A1000000A3
:104C70000000000000000000000000000000000034
:104C80000000B10000000000A9802000000000002A
:104C90000000000000000000B12448756146656E08
:104CA00044612047414E5353202047533837442016
:104CB000000000000000B125090AC0033230323183
:104CC00031323137B1400002000000000000000026
:104CD00000009901B12900560000010203040506F5
:104CE0000708090A0B0C0D0E0F10111213141517DB
:104CF00018191A1B1C1D1E221F200000FF00000097
:104D000000000000A65170009F86200000000000F7
:104D10006F87200000000000000000005D88200078
:104D200000000000E38B20000000000000000000F5
:104D30000000000000000000000000000000000073
:104D40002991200000000000A9912000000000002F
:104D50002992200000000000A9922000000000001D
:104D60003993200000000000FF0000002996200079
:104D700000000000000000000B0400ED672000FEB2
:024D8000000031
:00000001FF
